:100000000C942B000C9453000C9453000C9453004C
:100010000C9453000C9453000C9453000C94530014
:100020000C9453000C9453000C9453000C94530004
:100030000C9453000C9453000C9453000C945300F4
:100040000C9453000C9453000C9453000C94FF0038
:100050000C9453000F0211241FBECFE5D8E0DEBF81
:10006000CDBF10E0A0E6B0E0EEECF8E002C00590F5
:100070000D92A236B107D9F721E0A2E6B0E001C0A7
:100080001D92A039B207E1F710E0CBE2D0E004C046
:100090002197FE010E945F04CA32D107C9F70E946E
:1000A0002C010C9465040C9400008091600091E098
:1000B000980F909360000895EF92FF921F93CF9353
:1000C000DF93FC018081262F30E02230310574F06F
:1000D0007F01EF012196E60EF11C699111E0180FE6
:1000E0000E941402812FCE15DF05B9F78FEF8093A0
:1000F0009000DF91CF911F91FF90EF9008958FEFC7
:1001000087BB84BB81BB81EA8FBD81E08EBD089532
:10011000CF93DF93D82FC92F1BBC80E00E941A0217
:100120008ABD19BC8D2F9C2F8739910514F086E963
:1001300090E088BDDF91CF9108951BBC8739910570
:1001400014F086E990E08ABD19BC80E00E941A0292
:1001500088BD0895CF93DF93EB010E948800CE0104
:100160000E949D00DF91CF91089511B890E290B95F
:1001700095E496BF880F82B9089581B1803AD1F095
:1001800028F4803641F0803849F035C0883A21F1B2
:10019000883B59F130C010928A002DC0E0918A004E
:1001A00081E08E0F80938A0083B1F0E0EE59FF4F1B
:1001B000808321C0E0918E00F0918F0060918A00D1
:1001C00082E690E00995E2E6F0E086E790E01192A1
:1001D000E817F907E1F70FC010928A00E0918C0050
:1001E000F0918D00099583B906C0E0918C00F091E3
:1001F0008D00099583B986B7806886BF08951F92E0
:100200000F920FB60F9211242F933F934F935F934A
:100210006F937F938F939F93AF93BF93EF93FF93CE
:100220000E94BD00FF91EF91BF91AF919F918F917F
:100230007F916F915F914F913F912F910F900FBEE2
:100240000F901F90189510BC8CE089B91BB886E8F8
:1002500080BD88E18AB908950E947F000E94230131
:1002600088E00E94B5008CE590E090938F00809329
:100270008E0085E590E090938D0080938C007894BB
:1002800064E680E00E94140262E381E00E941402AE
:1002900067E182E00E94140264E670E084E690E088
:1002A0000E94AA00D0E010E000E0312C8091900084
:1002B0008823E1F384E00E941A02C82F85E00E949F
:1002C0001A026C2F70E0762F6627682B072E000C21
:1002D000880B990B0E943D0328E23EE74CE05DE36A
:1002E0000E94F2036B017C0180E00E941A02C82F79
:1002F00081E00E941A02682F70E080E090E00E9486
:100300003D0320E030E040E251E40E9493022B01E3
:100310003C0182E00E941A02682F70E080E090E0C9
:100320000E943D0320E030E040E251E40E9493024D
:100330004B015C0120E030E0A901C701B6010E9439
:10034000ED03181674F52D2F312F402F532DC701B3
:10035000B6010E942102A50194010E94F2034B0103
:100360005C01A3019201C701B6010E94F2039B0147
:10037000AC01C501B4010E9422024B015C016C2F4B
:1003800070E080E090E00E943D039B01AC01C5015C
:10039000B4010E9422020E940503CB010E94880042
:1003A00037C020E030E0A901C701B6010E948E02EB
:1003B000882374F5A3019201C701B60190580E94E9
:1003C000F2032B013C012D2F312F402F532DC7015C
:1003D000B6010E942102A50194010E94F2039B0133
:1003E000AC01C301B2010E9422024B015C016C2FDF
:1003F00070E080E090E00E943D039B01AC01C501EC
:10040000B4010E9422020E940503CB010E949D00BC
:1004100010929000DC2D1D2D0E2D3F2C47CF8BE828
:1004200090E00E9420020895E82FF0E0EF56FF4F81
:1004300060830895E82FF0E0EF56FF4F8081089524
:1004400008955058BB27AA270E9439020C94B30381
:100450000E94A50338F00E94AC0320F039F49F3FBE
:1004600019F426F40C94A2030EF4E095E7FB0C9427
:100470009C03E92F0E94C40358F3BA17620773075D
:100480008407950720F079F4A6F50C94E6030EF4A2
:10049000E0950B2EBA2FA02D0B01B90190010C0194
:1004A000CA01A0011124FF27591B99F0593F50F4AC
:1004B000503E68F11A16F040A22F232F342F442704
:1004C000585FF3CF469537952795A795F0405395FC
:1004D000C9F77EF41F16BA0B620B730B840BBAF0CC
:1004E0009150A1F0FF0FBB1F661F771F881FC2F737
:1004F0000EC0BA0F621F731F841F48F4879577954B
:100500006795B795F7959E3F08F0B0CF9395880F04
:1005100008F09927EE0F9795879508950E94780324
:1005200008F481E008950E94A7020C94B3030E948E
:10053000AC0358F00E94A50340F029F45F3F29F076
:100540000C949C0351110C94E7030C94A2030E9499
:10055000C40368F39923B1F3552391F3951B550B0D
:10056000BB27AA2762177307840738F09F5F5F4F86
:10057000220F331F441FAA1FA9F335D00E2E3AF0C5
:10058000E0E832D091505040E695001CCAF72BD0DD
:10059000FE2F29D0660F771F881FBB1F261737072E
:1005A0004807AB07B0E809F0BB0B802DBF01FF2760
:1005B00093585F4F3AF09E3F510578F00C949C039E
:1005C0000C94E7035F3FE4F3983ED4F38695779568
:1005D0006795B795F7959F5FC9F7880F911D969519
:1005E000879597F90895E1E0660F771F881FBB1F75
:1005F000621773078407BA0720F0621B730B840B22
:10060000BA0BEE1F88F7E09508950E940C036894DA
:10061000B1110C94E70308950E94CC0388F09F5712
:1006200098F0B92F9927B751B0F0E1F0660F771F16
:10063000881F991F1AF0BA95C9F714C0B13091F00C
:100640000E94E603B1E008950C94E603672F782F2B
:100650008827B85F39F0B93FCCF3869577956795D1
:10066000B395D9F73EF490958095709561957F4F3D
:100670008F4F9F4F0895E89409C097FB3EF49095E3
:100680008095709561957F4F8F4F9F4F9923A9F06B
:10069000F92F96E9BB279395F695879577956795FA
:1006A000B795F111F8CFFAF4BB0F11F460FF1BC03E
:1006B0006F5F7F4F8F4F9F4F16C0882311F096E9D1
:1006C00011C0772321F09EE8872F762F05C066237F
:1006D00071F096E8862F70E060E02AF09A95660F38
:1006E000771F881FDAF7880F9695879597F90895F1
:1006F000990F0008550FAA0BE0E8FEEF1616170633
:10070000E807F907C0F012161306E407F50798F09A
:10071000621B730B840B950B39F40A2661F0232BB3
:10072000242B252B21F408950A2609F4A140A6952F
:100730008FEF811D811D089597F99F6780E870E014
:1007400060E008959FEF80EC089500240A94161647
:10075000170618060906089500240A9412161306AF
:10076000140605060895092E0394000C11F488233D
:1007700052F0BB0F40F4BF2B11F460FF04C06F5F59
:100780007F4F8F4F9F4F089557FD9058440F551F2F
:1007900059F05F3F71F04795880F97FB991F61F003
:1007A0009F3F79F087950895121613061406551F7A
:1007B000F2CF4695F1DF08C0161617061806991FE6
:1007C000F1CF86957105610508940895E894BB27DB
:1007D00066277727CB0197F908950E94780308F4DC
:1007E0008FEF08950E9405040C94B3030E94A503A3
:1007F00038F00E94AC0320F0952311F00C949C0378
:100800000C94A20311240C94E7030E94C40370F318
:10081000959FC1F3950F50E0551F629FF001729FA5
:10082000BB27F00DB11D639FAA27F00DB11DAA1FB4
:10083000649F6627B00DA11D661F829F2227B00D01
:10084000A11D621F739FB00DA11D621F839FA00D8C
:10085000611D221F749F3327A00D611D231F849FDC
:10086000600D211D822F762F6A2F11249F57504033
:100870009AF0F1F088234AF0EE0FFF1FBB1F661FAE
:10088000771F881F91505040A9F79E3F510580F077
:100890000C949C030C94E7035F3FE4F3983ED4F37D
:1008A000869577956795B795F795E7959F5FC1F71B
:1008B000FE2B880F911D9695879597F90895EE0F59
:0E08C000FF1F0590F491E02D0994F894FFCFEE
:0208CE003300F5
:00000001FF
