:1000000077C0000095C0000093C0000091C00000C0
:100010008FC000008DC000008BC0000089C00000B0
:1000200087C0000085C0000083C0000081C00000C0
:100030007FC000007DC000007BC0000079C00000D0
:1000400077C0000075C0000073C0000071C00000E0
:100050006FC000006DC000006BC0000069C00000F0
:1000600067C0000065C0000063C0000061C0000000
:100070005FC000005DC000005BC0000059C0000010
:1000800057C0000055C0000053C0000051C0000020
:10009000BEC100004DC000004BC0000049C00000C0
:1000A00047C0000045C0000043C0000041C0000040
:1000B0003FC000003DC000003BC0000039C0000050
:1000C00037C0000035C0000033C0000031C0000060
:1000D0002FC000002DC000002BC0000029C0000070
:1000E00027C000006364696E6F70737578585B0099
:1000F00011241FBECFEFD1E2DEBFCDBF00E00CBFA9
:1001000013E0A0E0B2E0E6E8F4E100E00BBF02C0DB
:1001100007900D92A436B107D9F723E0A4E6B3E027
:1001200001C01D92AF3CB207E1F731D20C94410AF5
:1001300067CF1092B90088E48093B80084E0809380
:10014000BC000895EF92FF920F931F93CF93DF931C
:10015000ECEBF0E090819062908390819923ECF732
:100160009091B900880F8F5F8093BB0084E88093E3
:10017000BC00ECEBF0E080818823ECF78091B900C3
:100180008091BB00DB018C9390E050E0415051091D
:10019000ECEBF0E00F2EF4ECFF2EF02D0F2EF4E838
:1001A000EF2EF02D09EB10E0CBEBD0E0292F30E063
:1001B0002417350711F4E08201C0F0828081882382
:1001C000ECF7D8018C912881DB01A90FB11D2C938C
:1001D0009F5F803559F384E98093BC00DF91CF9114
:1001E0001F910F91FF90EF900895CF93DF93ECEB69
:1001F000F0E090819062908390819923ECF7880FD2
:100200008093BB0084E88093BC00ECEBF0E080813D
:100210008823ECF7442389F0DB01640F711DCBEBDD
:10022000D0E0ECEBF0E094E88D91888390838081BE
:100230008823ECF7A617B707B9F784E98093BC00C9
:10024000DF91CF910895E8ECF0E0908195FFFDCF2C
:100250008093CE000895CF93DF93EC0188818823AB
:1002600029F02196F0DF89918111FCCFDF91CF91A8
:10027000089587E690E09093CD008093CC00109293
:10028000C80086E08093CA0088E98093C90080E0B6
:1002900092E0E1CF08950F931F93CF93DF9300D0A7
:1002A0001F92CDB7DEB7CE0101969F938F938EE05C
:1002B00092E09F938F9305E613E01F930F93DDD297
:1002C000F8011082118212821C821B8269817A815C
:1002D0006C830F900F900F900F900F900F90809164
:1002E0006803843609F46CC018F4813639F086C08E
:1002F000803709F446C0833739F180C0660F771F15
:10030000072E000C880B990BFED128E23EE74CE04B
:100310005DE35ED1C5D16093690370936A037F93F7
:100320006F9381E192E09F938F938BE693E09F938D
:100330008F9375D28BE693E08EDF0F900F900F9026
:100340000F900F900F905AC01F921F9277277F93A4
:100350006F9384E392E09F938F938BE693E09F9358
:100360008F935DD28BE693E076DF42E0BE016D5F56
:100370007F4F88E03ADF0FB6F894DEBF0FBECDBFE7
:100380003DC081E08B831F928F9377277F936F937C
:1003900084E392E09F938F938BE693E09F938F93F8
:1003A0003ED28BE693E057DF42E0BE016D5F7F4FA8
:1003B00088E01BDF0FB6F894DEBF0FBECDBF1EC0B6
:1003C00082E08B831F928F9377277F936F9384E3D1
:1003D00092E09F938F938BE693E09F938F931FD22E
:1003E0008BE693E038DF42E0BE016D5F7F4F88E02F
:1003F000FCDE0FB6F894DEBF0FBECDBF0F900F909E
:100400000F900F90DF91CF911F910F9108951F9240
:100410000F920FB60F9211240BB60F922F933F93AA
:100420004F935F936F937F938F939F93AF93BF93FC
:10043000CF93EF93FF93C091CE00C436E9F028F438
:10044000CD3001F1C13631F01FC0C03779F0C3376C
:1004500039F01AC081E6809368031092640320C0CB
:1004600083E780936803109264031AC080E7809347
:1004700068031092640314C084E6809368031092AA
:1004800064030EC008DF0CC0E0916403E33040F465
:1004900081E08E0F80936403F0E0EB59FC4FC08342
:1004A0008C2FD1DEFF91EF91CF91BF91AF919F91B2
:1004B0008F917F916F915F914F913F912F910F900D
:1004C0000BBE0F900FBE0F901F901895CF93DF9328
:1004D00000D01F921F92CDB7DEB7198282E58A83C2
:1004E00082E08B8342E0BE016F5F7F4F80E77DDE5D
:1004F0002FEF81EE94E0215080409040E1F700C062
:10050000000041E0BE016D5F7F4F80E76EDE42E09C
:10051000BE016C5F7F4F80E715DE8C8190E0982FE5
:1005200088272D81822B0F900F900F900F900F90A6
:10053000DF91CF910895CF93DF9300D0CDB7DEB791
:1005400043E049839A838B8320E0282B9F932F934A
:100550001F924F9387E592E09F938F938BE693E0F2
:100560009F938F935CD18BE693E075DE43E0BE01F1
:100570006F5F7F4F88E039DE0FB6F894DEBF0FBEA5
:10058000CDBF0F900F900F90DF91CF91089571DE46
:10059000D0DD789485ED96E090936A0380936903AB
:1005A00085E792E058DE89EA92E055DE88ED92E038
:1005B00052DE88E093E04FDE87E293E04CDE86DF98
:1005C0002091690330916A03821B930BB4DFF7CF4C
:1005D0000CD0EBC0E3D040F0DAD030F021F45F3F34
:1005E00019F0CCC0511115C1CFC0F0D098F39923A8
:1005F000C9F35523B1F3951B550BBB27AA276217E7
:100600007307840738F09F5F5F4F220F331F441F2B
:10061000AA1FA9F333D00E2E3AF0E0E830D0915063
:100620005040E695001CCAF729D0FE2F27D0660F50
:10063000771F881FBB1F261737074807AB07B0E88F
:1006400009F0BB0B802DBF01FF2793585F4F2AF0A5
:100650009E3F510568F092C0DCC05F3FECF3983ECE
:10066000DCF3869577956795B795F7959F5FC9F702
:10067000880F911D9695879597F90895E1E0660F8B
:10068000771F881FBB1F621773078407BA0720F004
:10069000621B730B840BBA0BEE1F88F7E09508956D
:1006A00004D06894B111B5C0089598D088F09F57D0
:1006B00090F0B92F9927B751A0F0D1F0660F771FAE
:1006C000881F991F1AF0BA95C9F712C0B13081F08E
:1006D0009FD0B1E008959CC0672F782F8827B85F1E
:1006E00039F0B93FCCF3869577956795B395D9F7EF
:1006F0003EF490958095709561957F4F8F4F9F4FF9
:100700000895E89409C097FB3EF490958095709504
:1007100061957F4F8F4F9F4F9923A9F0F92F96E94D
:10072000BB279395F695879577956795B795F111C2
:10073000F8CFFAF4BB0F11F460FF1BC06F5F7F4F5F
:100740008F4F9F4F16C0882311F096E911C0772371
:1007500021F09EE8872F762F05C0662371F096E87A
:10076000862F70E060E02AF09A95660F771F881F49
:10077000DAF7880F9695879597F9089597F99F6707
:1007800080E870E060E008959FEF80EC0895002419
:100790000A941616170618060906089500240A94E6
:1007A00012161306140605060895092E0394000C6C
:1007B00011F4882352F0BB0F40F4BF2B11F460FFFB
:1007C00004C06F5F7F4F8F4F9F4F089557FD905824
:1007D000440F551F59F05F3F71F04795880F97FB05
:1007E000991F61F09F3F79F08795089512161306BF
:1007F0001406551FF2CF4695F1DF08C016161706EE
:100800001806991FF1CF8695710561050894089522
:10081000E894BB2766277727CB0197F908950F93B4
:100820001F93CF93DF93CDB7DEB72E970FB6F89413
:10083000DEBF0FBECDBF0E891F8986E08C831A8371
:1008400009838FEF9FE79E838D83AE01465E5F4FE6
:10085000688D798DCE01019631D0EF81F885E00F5A
:10086000F11F10822E960FB6F894DEBF0FBECDBFDB
:10087000DF91CF911F910F910895CF93DF93CDB763
:10088000DEB72E970FB6F894DEBF0FBECDBF85E062
:100890008C838C899D899A838983AE01485E5F4FE2
:1008A0006E897F89CE010196B8D32E960FB6F89443
:1008B000DEBF0FBECDBFDF91CF9108952F923F9243
:1008C0004F925F926F927F928F929F92AF92BF9260
:1008D000CF92DF92EF92FF920F931F93CF93DF930C
:1008E000CDB7DEB72B970FB6F894DEBF0FBECDBFE6
:1008F0006C017B018A01FC0117821682838181FFD2
:10090000BFC1CE0101963C01F6019381F70193FD31
:10091000859193FF81917F01882309F4ADC18532D0
:1009200039F493FD859193FF81917F01853221F404
:10093000B60190E0F0D4E8CF912C212C312CFFE1CE
:10094000F315D8F08B3279F038F4803279F08332B5
:10095000A1F4232D20611DC08D3261F0803369F434
:10096000232D216016C0832D8260382EE32DE46094
:100970003E2E2AC0F32DF8601DC037FC2DC020ED9F
:10098000280F2A3040F08E32B9F436FC75C1232D81
:100990002064322E19C036FE06C08AE0989E200DD3
:1009A0001124922E11C0EAE02E9E200D1124222E39
:1009B000F32DF0623F2E08C08C3621F4832D806821
:1009C000382E02C0883641F4F70193FD859193FFDC
:1009D00081917F018111B3CF982F9F7D95549330E2
:1009E00028F40C5F1F4F9FE399830DC0833631F0CD
:1009F000833771F0833509F055C020C0F80180813C
:100A000089830E5F1F4F88248394912C530112C059
:100A10002801F2E04F0E511CF801A080B18036FE93
:100A200003C0692D70E002C06FEF7FEFC5012AD4CB
:100A30004C018201F32DFF773F2E15C0280122E0E3
:100A4000420E511CF801A080B18036FE03C0692D12
:100A500070E002C06FEF7FEFC50109D44C01F32DA8
:100A6000F0683F2E820133FC19C0822D90E0881679
:100A70009906A0F4B60180E290E04DD42A94F5CF17
:100A8000F50137FC859137FE81915F01B60190E059
:100A900042D421102A9421E0821A910881149104F1
:100AA00079F7E1C0843611F0893639F5F80137FE5F
:100AB00007C060817181828193810C5F1F4F08C0E4
:100AC00060817181072E000C880B990B0E5F1F4F00
:100AD000F32DFF763F2E97FF09C090958095709576
:100AE00061957F4F8F4F9F4FF0683F2E2AE030E097
:100AF000A30166D4882E861844C0853731F4232D8F
:100B00002F7EB22E2AE030E025C0932D997FB92E9A
:100B10008F36C1F018F4883579F0AEC0803719F0FF
:100B2000883721F0A9C0E92FE061BE2EB4FE0DC0C8
:100B3000FB2DF460BF2E09C034FE0AC0292F2660A9
:100B4000B22E06C028E030E005C020E130E002C04F
:100B500020E132E0F801B7FE07C060817181828137
:100B600093810C5F1F4F06C06081718180E090E02F
:100B70000E5F1F4FA30124D4882E8618FB2DFF770C
:100B80003F2E36FE0DC0232D2E7FA22E891458F441
:100B900034FE0BC032FC09C0832D8E7EA82E05C00A
:100BA000B82CA32C03C0B82C01C0B92CA4FE0FC0D4
:100BB000FE01E80DF11D8081803321F49A2D997E8C
:100BC000A92E09C0A2FE06C0B394B39404C08A2D16
:100BD000867809F0B394A3FC10C0A0FE06C0B2143E
:100BE00080F4280C922C9B180DC0B21458F4B60156
:100BF00080E290E090D3B394F8CFB21418F42B189D
:100C000002C0982C212CA4FE0FC0B60180E390E016
:100C100082D3A2FE16C0A1FC03C088E790E002C008
:100C200088E590E0B6010CC08A2D867851F0A1FECF
:100C300002C08BE201C080E2A7FC8DE2B60190E029
:100C40006AD3891430F4B60180E390E064D39A94B7
:100C5000F8CF8A94F301E80DF11D8081B60190E090
:100C60005AD38110F6CF222009F44ECEB60180E28D
:100C700090E051D32A94F7CFF6018681978102C084
:100C80008FEF9FEF2B960FB6F894DEBF0FBECDBF50
:100C9000DF91CF911F910F91FF90EF90DF90CF9058
:100CA000BF90AF909F908F907F906F905F904F908C
:100CB0003F902F90089520FD09C0FC0123FD05C041
:100CC00022FF02C07383628351834083089544FDF1
:100CD00017C046FD17C0AB01BC01DA01FB01AA0F2A
:100CE000BB1FEE1FFF1F1094D1F74A0F5B1F6E1F33
:100CF0007F1FCB01BA01660F771F881F991F09C09C
:100D000033E001C034E0660F771F881F991F315010
:100D1000D1F7620F711D811D911D08950F931F93CF
:100D2000CF93DF938C01C801B8D2EC0197FD06C0C8
:100D30008BD2892BC1F7B801CE0129D3CE01DF9127
:100D4000CF911F910F9108958F929F92AF92BF9272
:100D5000EF92FF920F931F93CF93DF938C01D62FC7
:100D60007A01B22E9AD29C0133272B32310531F011
:100D70002D32310559F48B2D8068B82ED15011F4E5
:100D800080E061C0C80189D297FDFACFCB2DCD7F1D
:100D90002B2D2073F9F48033E9F4AA24AA94AD0E24
:100DA00009F43EC0C80179D297FD3AC09C012F7D5D
:100DB00033272835310541F4C264D25089F1C80186
:100DC0006CD297FF07C02CC0B6FE02C0C26001C043
:100DD000C261DA2D812C912C540120ED280F28308E
:100DE00078F0C4FF03C0B801D2D217C02A3040F057
:100DF000C6FFF9CF2F7D3FEE320F3630A0F72750D8
:100E00004C2FC501B40163DF4B015C01C260D150BE
:100E100051F0C80142D297FFE0CFC1FD04C0B0CF6E
:100E2000812C912C5401C7FF08C0B094A0949094D9
:100E30008094811C911CA11CB11C2C2FB501A40114
:100E4000C70139DF81E0DF91CF911F910F91FF90B2
:100E5000EF90BF90AF909F908F9008955F926F92A8
:100E60007F928F929F92AF92BF92CF92DF92EF923A
:100E7000FF920F931F93CF93DF93CDB7DEB7A09769
:100E80000FB6F894DEBF0FBECDBF5C01962E7A017F
:100E9000F9018E010F5F1F4F680180E2D8011D929A
:100EA0008A95E9F7D50113968C9080E090E0612C4B
:100EB000712C30E061E070E083FC259183FE21918C
:100EC0008F01522E211103C080E090E090C02E359A
:100ED00011F4009751F1432F50E0481759073CF4A3
:100EE0002D3559F12D3219F4772009F103C07720FF
:100EF00009F468C0452D469546954695D601A40F40
:100F0000B11D452D47708B0102C0000F111F4A957E
:100F1000E2F7A8015C91452B4C93651459F05614E7
:100F200010F45394E7CF5A94E5CF31E004C077240E
:100F3000739401C0712C0196BFCF772019F08E8178
:100F400080628E83311103C08824839417C0F60118
:100F50009E012F5D3F4F8081809581932E173F0723
:100F6000D1F7F2CFE114F10429F0D7018C93F70106
:100F700031967F019A94812C9920E9F0C5018DD199
:100F800097FD17C0FC01FF2723E0F595E7952A950B
:100F9000E1F7EC0DFD1D208130E0AC0147705527D5
:100FA00002C0359527954A95E2F720FDDBCFB501C4
:100FB000EED1811089CFE114F10411F0D7011C9218
:100FC000C80115C0422F469546954695D601A40FF7
:100FD000B11D422F47708B0102C0000F111F4A95AF
:100FE000E2F7A8015C91452B4C93622EA4CFA0960A
:100FF0000FB6F894DEBF0FBECDBFDF91CF911F912A
:101000000F91FF90EF90DF90CF90BF90AF909F90A7
:101010008F907F906F905F9008955F926F927F9214
:101020008F929F92AF92BF92CF92DF92EF92FF92F8
:101030000F931F93CF93DF936C01EB015A01FC01D7
:1010400017821682512CF601E380FE01E3FC8591A4
:10105000E3FE8191182FEF01882309F4E0C090E0AE
:10106000F3D0892B19F0C60159DEEDCF153241F4CA
:10107000FE01E3FC1591E3FE1191EF01153271F4CD
:10108000C6010BD197FDC9C0412F50E09C01332709
:1010900024173507C1F2B6017AD1C1C01A3239F42A
:1010A000E3FC1591E3FE1191EF0101E001C000E0C6
:1010B000F12C20ED210F2A3078F402606F2D70E0C2
:1010C00080E090E040E203DEF62EFE01E3FC1591A5
:1010D000E3FE1191EF01EDCF01FF03C0F11003C05A
:1010E0009EC0FF24FA94183619F01C3651F010C037
:1010F000FE01E3FC1591E3FE1191EF01183641F476
:1011000008600460FE01E3FC1591E3FE1191EF011C
:10111000112309F484C0612F70E084EE90E09CD02C
:10112000892B09F47CC000FD07C0F5018080918007
:10113000C50102965C0102C0812C912C1E3649F437
:10114000F6014681578160E070E0202FC401B3DDD5
:101150007ACF1336A1F401FD02C0FF24F394C60137
:101160009CD097FD5AC08114910429F0F40180832A
:10117000C40101964C01FA94F110F1CF4AC01B351D
:1011800051F49E01A4016F2DC60168DEEC01892B8C
:1011900009F03FC039C0C601C1DD97FD3EC01F3612
:1011A00049F128F4143621F1193639F125C01337E5
:1011B00071F01537E9F020C08114910429F0F40191
:1011C0006082C40101964C01FA94FF2059F0C601D7
:1011D00064D03C0197FD06C037D0892B69F3B60176
:1011E000C301D5D081149104A1F0F401108211C083
:1011F000006203C0006101C00064202FA4016F2DB4
:10120000C601A2DD811105C0F6018381807329F436
:1012100006C000FD18CF539416CF552019F0852D28
:1012200090E002C08FEF9FEFDF91CF911F910F9160
:10123000FF90EF90DF90CF90BF90AF909F908F90F6
:101240007F906F905F900895911118C1803219F0CE
:1012500089508550D0F70895FC010590061621F0BD
:101260000020D9F7C00108953197CF010895FC01FE
:101270000590615070400110D8F7809590958E0FC1
:101280009F1F0895FC016150704001900110D8F734
:10129000809590958E0F9F1F0895CF93DF93EC015B
:1012A0002B8120FF33C026FF0AC02F7B2B838E812A
:1012B0009F8101969F838E838A8190E029C022FFBF
:1012C0000FC0E881F9818081082E000C990B0097EE
:1012D00019F420622B831AC03196F983E8830EC07B
:1012E000EA85FB85199597FF09C02B81019611F0BE
:1012F00080E201C080E1822B8B8308C02E813F8178
:101300002F5F3F4F3F832E83992702C08FEF9FEFC0
:10131000DF91CF9108950F931F93CF93DF93FB013C
:10132000238121FD03C08FEF9FEF2CC022FF16C049
:1013300046815781248135814217530744F4A081A7
:10134000B1819D012F5F3F4F318320838C93268194
:1013500037812F5F3F4F3783268314C08B01EC0109
:10136000FB010084F185E02D1995892BE1F6D80168
:1013700016968D919C911797019617969C938E9334
:101380001697CE01DF91CF911F910F910895FB0128
:10139000238120FF12C026FD10C08F3F3FEF93072F
:1013A00061F082832F7D2064238326813781215041
:1013B000310937832683992708958FEF9FEF08958A
:1013C000FA01AA27283051F1203181F1E8946F9376
:1013D0006E7F6E5F7F4F8F4F9F4FAF4FB1E03ED01C
:1013E000B4E03CD0670F781F891F9A1FA11D680FBA
:1013F000791F8A1F911DA11D6A0F711D811D911DED
:10140000A11D20D009F468943F912AE0269F112461
:101410003019305D3193DEF6CF010895462F4770C5
:10142000405D4193B3E00FD0C9F7F6CF462F4F7020
:10143000405D4A3318F0495D31FD4052419302D07E
:10144000A9F7EACFB4E0A695979587957795679524
:10145000BA95C9F700976105710508959B01AC0124
:101460000A2E06945795479537952795BA95C9F74B
:10147000620F731F841F951FA01D08959927882749
:061480000895F894FFCF6F
:10148600557361727420656E61626C6564002564D3
:10149600004465206E696575776520676577656EBA
:1014A6007374652061667374616E642069733A2093
:1014B60025640A004465207665727A6F6E64656EEF
:1014C60020646174612069733A202564206E61612D
:1014D600723A2025640A00457220776F7264742080
:1014E6007665727A6F6E64656E3A202564203B20BD
:1014F60025640A0A000A0A57656C6B6F6D206269DB
:101506006A2064652057616C6C2D466F6C6C6F7732
:1015160020526F626F742E0A4B6965732065656E83
:10152600206F707469653A0A002D20613A20416681
:101536007374616E6420746F74206465206D7575B4
:10154600722061616E70617373656E202832352D6D
:10155600353020636D290A002D20733A20446566D4
:1015660061756C7420736E656C6865696420616171
:101576006E70617373656E202831302D31353020E1
:10158600756E697473290A002D20703A20502D67F4
:1015960061696E2061616E70617373656E202830BB
:1015A6002D323535290A002D20643A20442D6761F5
:1015B600696E2061616E70617373656E2028302DCF
:1015C600323535290A004465206F6E7476616E6780
:1015D600656E2061667374616E642069733A2025B6
:0415E600640A0A0089
:00000001FF
