:1000000077C0000094C0000092C0000090C00000C3
:100010008EC000008CC000008AC0000088C00000B4
:1000200086C0000084C0000082C0000080C00000C4
:100030007EC000007CC000007AC0000078C00000D4
:1000400076C0000074C0000072C0000070C00000E4
:100050006EC000006CC000006AC0000068C00000F4
:1000600066C0000064C0000062C0000060C0000004
:100070005EC000005CC000005AC0000058C0000014
:1000800056C0000054C0000052C0000050C0000024
:1000900054C100004CC000004AC0000048C000002D
:1000A00046C0000044C0000042C0000040C0000044
:1000B0003EC000003CC000003AC0000038C0000054
:1000C00036C0000034C0000032C0000030C0000064
:1000D0002EC000002CC000002AC0000028C0000074
:1000E00026C000006364696E6F70737578585B009A
:1000F00011241FBECFEFD1E2DEBFCDBF00E00CBFA9
:1001000012E0A0E0B2E0EAEEFDE000E00BBF02C0CA
:1001100007900D92A23FB107D9F722E0A2EFB2E01B
:1001200001C01D92A93FB207E1F7BED15CC668CFFE
:100130001092B90088E48093B80084E08093BC00FA
:100140000895EF92FF920F931F93CF93DF93ECEB01
:10015000F0E090819062908390819923ECF79091E8
:10016000B900880F8F5F8093BB0084E88093BC0048
:10017000ECEBF0E080818823ECF78091B90080916E
:10018000BB00DB018C9390E050E041505109ECEB57
:10019000F0E00F2EF4ECFF2EF02D0F2EF4E8EF2EF2
:1001A000F02D09EB10E0CBEBD0E0292F30E0241745
:1001B000350711F4E08201C0F08280818823ECF7DA
:1001C000D8018C912881DB01A90FB11D2C939F5F71
:1001D000803559F384E98093BC00DF91CF911F9162
:1001E0000F91FF90EF900895CF93DF93ECEBF0E049
:1001F00090819062908390819923ECF7880F80938F
:10020000BB0084E88093BC00ECEBF0E080818823A5
:10021000ECF7442389F0DB01640F711DCBEBD0E0D8
:10022000ECEBF0E094E88D918883908380818823C3
:10023000ECF7A617B707B9F784E98093BC00DF9104
:10024000CF91089587E690E09093CD008093CC0005
:100250001092C80086E08093CA0088E98093C900A4
:1002600008950F931F93CF93DF9300D01F92CDB7C4
:10027000DEB7CE0101969F938F9380E092E09F932B
:100280008F9303EF12E01F930F9356D2F801108261
:10029000118212821C821B8269817A816C830F9089
:1002A0000F900F900F900F900F908091F602843670
:1002B00059F118F4813631F02FC08037E1F08337DF
:1002C00099F02AC0660F771F072E000C880B990B38
:1002D000A7D128E23EE74CE05DE307D16ED17093F1
:1002E000F8026093F70218C042E0BE016D5F7F4FD5
:1002F00088E07ADF11C081E08B8342E0BE016D5F50
:100300007F4F88E071DF08C082E08B8342E0BE014E
:100310006D5F7F4F88E068DF0F900F900F900F9018
:10032000DF91CF911F910F910895E8ECF0E090815B
:1003300095FFFDCF8093CE0008951F920F920FB6C8
:100340000F9211240BB60F922F933F934F935F930D
:100350006F937F938F939F93AF93BF93CF93EF93BD
:10036000FF93C091CE00C436E9F028F4CD3001F1FE
:10037000C13631F01FC0C03779F0C33739F01AC029
:1003800081E68093F6021092F20220C083E7809308
:10039000F6021092F2021AC080E78093F6021092E1
:1003A000F20214C084E68093F6021092F2020EC0AC
:1003B00058DF0CC0E091F202E33040F481E08E0F90
:1003C0008093F202F0E0ED50FD4FC0838C2FADDF43
:1003D000FF91EF91CF91BF91AF919F918F917F91BD
:1003E0006F915F914F913F912F910F900BBE0F90A6
:1003F0000FBE0F901F901895CF93DF93EC0188816B
:10040000882329F0219691DF89918111FCCFDF911A
:10041000CF910895CF93DF9300D01F921F92CDB755
:10042000DEB7198282E58A8382E08B8342E0BE01D7
:100430006F5F7F4F80E7D8DE2FEF81EE94E0215091
:1004400080409040E1F700C0000041E0BE016D5FD8
:100450007F4F80E7C9DE42E0BE016C5F7F4F80E7DF
:1004600070DE8C8190E0982F88272D81822B0F9051
:100470000F900F900F900F90DF91CF910895CF9331
:10048000DF9300D0CDB7DEB724E029839A838B8336
:1004900043E0BE016F5F7F4F88E0A6DE0F900F90B4
:1004A0000F90DF91CF910895CDDE42DE789485EDF7
:1004B00096E09093F8028093F70283E092E09CDF4D
:1004C00087E392E099DF86E692E096DF86E992E0A4
:1004D00093DF85EB92E090DF9DDF2091F702309172
:1004E000F802821B930BCBDFF7CF0CD0EBC0E3D02D
:1004F00040F0DAD030F021F45F3F19F0CCC0511158
:1005000015C1CFC0F0D098F39923C9F35523B1F3A7
:10051000951B550BBB27AA2762177307840738F072
:100520009F5F5F4F220F331F441FAA1FA9F333D0D1
:100530000E2E3AF0E0E830D091505040E695001C85
:10054000CAF729D0FE2F27D0660F771F881FBB1F41
:10055000261737074807AB07B0E809F0BB0B802D1B
:10056000BF01FF2793585F4F2AF09E3F510568F067
:1005700092C0DCC05F3FECF3983EDCF38695779544
:100580006795B795F7959F5FC9F7880F911D969569
:10059000879597F90895E1E0660F771F881FBB1FC5
:1005A000621773078407BA0720F0621B730B840B72
:1005B000BA0BEE1F88F7E095089504D06894B11146
:1005C000B5C0089598D088F09F5790F0B92F99271B
:1005D000B751A0F0D1F0660F771F881F991F1AF04E
:1005E000BA95C9F712C0B13081F09FD0B1E008953B
:1005F0009CC0672F782F8827B85F39F0B93FCCF3BC
:10060000869577956795B395D9F73EF49095809543
:10061000709561957F4F8F4F9F4F0895E89409C063
:1006200097FB3EF490958095709561957F4F8F4F25
:100630009F4F9923A9F0F92F96E9BB279395F6953B
:10064000879577956795B795F111F8CFFAF4BB0FB9
:1006500011F460FF1BC06F5F7F4F8F4F9F4F16C01D
:10066000882311F096E911C0772321F09EE8872FA7
:10067000762F05C0662371F096E8862F70E060E063
:100680002AF09A95660F771F881FDAF7880F9695DC
:10069000879597F9089597F99F6780E870E060E083
:1006A00008959FEF80EC089500240A94161617060B
:1006B00018060906089500240A9412161306140653
:1006C00005060895092E0394000C11F4882352F0B6
:1006D000BB0F40F4BF2B11F460FF04C06F5F7F4F6E
:1006E0008F4F9F4F089557FD9058440F551F59F055
:1006F0005F3F71F04795880F97FB991F61F09F3F0F
:1007000079F087950895121613061406551FF2CF37
:100710004695F1DF08C0161617061806991FF1CF87
:1007200086957105610508940895E894BB276627AE
:100730007727CB0197F90895CF93DF93CDB7DEB735
:100740002E970FB6F894DEBF0FBECDBF85E08C8329
:100750008C899D899A838983AE01485E5F4F6E893B
:100760007F89CE010196BBD12E960FB6F894DEBFDD
:100770000FBECDBFDF91CF91089520FD09C0FC01D0
:1007800023FD05C022FF02C073836283518340832F
:10079000089544FD17C046FD17C0AB01BC01DA0146
:1007A000FB01AA0FBB1FEE1FFF1F1094D1F74A0FCA
:1007B0005B1F6E1F7F1FCB01BA01660F771F881F5B
:1007C000991F09C033E001C034E0660F771F881F0E
:1007D000991F3150D1F7620F711D811D911D089530
:1007E0000F931F93CF93DF938C01C801A2D2EC012A
:1007F00097FD06C08BD2892BC1F7B801CE01D7D2A5
:10080000CE01DF91CF911F910F9108958F929F920A
:10081000AF92BF92EF92FF920F931F93CF93DF930C
:100820008C01D62F7A01B22E84D29C0133272B3231
:10083000310531F02D32310559F48B2D8068B82EF9
:10084000D15011F480E061C0C80173D297FDFACF96
:10085000CB2DCD7F2B2D2073F9F48033E9F4AA241E
:10086000AA94AD0E09F43EC0C80163D297FD3AC008
:100870009C012F7D33272835310541F4C264D250C5
:1008800089F1C80156D297FF07C02CC0B6FE02C03E
:10089000C26001C0C261DA2D812C912C540120ED7F
:1008A000280F283078F0C4FF03C0B80180D217C0E9
:1008B0002A3040F0C6FFF9CF2F7D3FEE320F3630A1
:1008C000A0F727504C2FC501B40163DF4B015C0139
:1008D000C260D15051F0C8012CD297FFE0CFC1FDCA
:1008E00004C0B0CF812C912C5401C7FF08C0B09434
:1008F000A09490948094811C911CA11CB11C2C2F5D
:10090000B501A401C70139DF81E0DF91CF911F91CB
:100910000F91FF90EF90BF90AF909F908F900895B0
:100920005F926F927F928F929F92AF92BF92CF927F
:10093000DF92EF92FF920F931F93CF93DF93CDB788
:10094000DEB7A0970FB6F894DEBF0FBECDBF5C0137
:10095000962E7A01F9018E010F5F1F4F680180E228
:10096000D8011D928A95E9F7D50113968C9080E005
:1009700090E0612C712C30E061E070E083FC259107
:1009800083FE21918F01522E211103C080E090E05F
:1009900090C02E3511F4009751F1432F50E04817C5
:1009A00059073CF42D3559F12D3219F4772009F10E
:1009B00003C0772009F468C0452D469546954695B5
:1009C000D601A40FB11D452D47708B0102C0000F49
:1009D000111F4A95E2F7A8015C91452B4C936514D1
:1009E00059F0561410F45394E7CF5A94E5CF31E000
:1009F00004C07724739401C0712C0196BFCF772077
:100A000019F08E8180628E83311103C08824839413
:100A100017C0F6019E012F5D3F4F80818095819325
:100A20002E173F07D1F7F2CFE114F10429F0D701D7
:100A30008C93F70131967F019A94812C9920E9F0EB
:100A4000C50177D197FD17C0FC01FF2723E0F5957D
:100A5000E7952A95E1F7EC0DFD1D208130E0AC0112
:100A60004770552702C0359527954A95E2F720FD36
:100A7000DBCFB5019CD1811089CFE114F10411F0D5
:100A8000D7011C92C80115C0422F46954695469540
:100A9000D601A40FB11D422F47708B0102C0000F79
:100AA000111F4A95E2F7A8015C91452B4C93622EE9
:100AB000A4CFA0960FB6F894DEBF0FBECDBFDF91D6
:100AC000CF911F910F91FF90EF90DF90CF90BF904B
:100AD000AF909F908F907F906F905F9008955F92FE
:100AE0006F927F928F929F92AF92BF92CF92DF923E
:100AF000EF92FF920F931F93CF93DF936C01EB0163
:100B00005A01FC0117821682512CF601E380FE0186
:100B1000E3FC8591E3FE8191182FEF01882309F40E
:100B2000E0C090E0F3D0892B19F0C60159DEEDCF7B
:100B3000153241F4FE01E3FC1591E3FE1191EF0142
:100B4000153271F4C601F5D097FDC9C0412F50E0B0
:100B50009C01332724173507C1F2B60128D1C1C043
:100B60001A3239F4E3FC1591E3FE1191EF0101E033
:100B700001C000E0F12C20ED210F2A3078F4026052
:100B80006F2D70E080E090E040E203DEF62EFE0183
:100B9000E3FC1591E3FE1191EF01EDCF01FF03C0DE
:100BA000F11003C09EC0FF24FA94183619F01C36C9
:100BB00051F010C0FE01E3FC1591E3FE1191EF012D
:100BC000183641F408600460FE01E3FC1591E3FE71
:100BD0001191EF01112309F484C0612F70E084EEBC
:100BE00090E09CD0892B09F47CC000FD07C0F50182
:100BF00080809180C50102965C0102C0812C912CFD
:100C00001E3649F4F6014681578160E070E0202FDE
:100C1000C401B3DD7ACF1336A1F401FD02C0FF2475
:100C2000F394C60186D097FD5AC08114910429F02F
:100C3000F4018083C40101964C01FA94F110F1CFC4
:100C40004AC01B3551F49E01A4016F2DC60168DE18
:100C5000EC01892B09F03FC039C0C601C1DD97FD09
:100C60003EC01F3649F128F4143621F1193639F106
:100C700025C0133771F01537E9F020C081149104B5
:100C800029F0F4016082C40101964C01FA94FF201E
:100C900059F0C6014ED03C0197FD06C037D0892BD4
:100CA00069F3B601C30183D081149104A1F0F4016A
:100CB000108211C0006203C0006101C00064202FD7
:100CC000A4016F2DC601A2DD811105C0F60183814B
:100CD000807329F406C000FD18CF539416CF552019
:100CE00019F0852D90E002C08FEF9FEFDF91CF913B
:100CF0001F910F91FF90EF90DF90CF90BF90AF903A
:100D00009F908F907F906F905F900895911168C031
:100D1000803219F089508550D0F70895FC01059074
:100D2000061621F00020D9F7C00108953197CF01B0
:100D30000895CF93DF93EC012B8120FF33C026FF72
:100D40000AC02F7B2B838E819F8101969F838E8388
:100D50008A8190E029C022FF0FC0E881F98180815B
:100D6000082E000C990B009719F420622B831AC0EF
:100D70003196F983E8830EC0EA85FB85199597FFC4
:100D800009C02B81019611F080E201C080E1822B25
:100D90008B8308C02E813F812F5F3F4F3F832E837F
:100DA000992702C08FEF9FEFDF91CF910895FB014C
:100DB000238120FF12C026FD10C08F3F3FEF930715
:100DC00061F082832F7D2064238326813781215027
:100DD000310937832683992708958FEF9FEF089570
:0A0DE000992788270895F894FFCFA3
:100DEA002564000A0A57656C6B6F6D2062696A2078
:100DFA0064652057616C6C2D466F6C6C6F7720525E
:100E0A006F626F742E0A4B6965732065656E206F79
:100E1A00707469653A0A002D20613A20416673743C
:100E2A00616E6420746F74206465206D757572201C
:100E3A0061616E70617373656E202832352D3530AD
:100E4A0020636D290A002D20733A20446566617576
:100E5A006C7420736E656C686569642061616E707C
:100E6A00617373656E202831302D31353020756EEF
:100E7A00697473290A002D20703A20502D67616920
:100E8A006E2061616E70617373656E2028302D3239
:100E9A003535290A002D20643A20442D6761696E90
:100EAA002061616E70617373656E2028302D323552
:100EBA0035290A004465206F6E7476616E67656E27
:100ECA002061667374616E642069733A2025640A2E
:020EDA000A000C
:00000001FF
